{
  "_format": "hh-sol-artifact-1",
  "contractName": "Logic",
  "sourceName": "contracts/logic/Logic.sol",
  "abi": [
    {
      "anonymous": false,
      "inputs": [
        {
          "indexed": false,
          "internalType": "uint8",
          "name": "version",
          "type": "uint8"
        }
      ],
      "name": "Initialized",
      "type": "event"
    },
    {
      "anonymous": false,
      "inputs": [
        {
          "indexed": true,
          "internalType": "address",
          "name": "previousOwner",
          "type": "address"
        },
        {
          "indexed": true,
          "internalType": "address",
          "name": "newOwner",
          "type": "address"
        }
      ],
      "name": "OwnershipTransferred",
      "type": "event"
    },
    {
      "inputs": [
        {
          "internalType": "string",
          "name": "msgToSign",
          "type": "string"
        },
        {
          "internalType": "string",
          "name": "substrateSig",
          "type": "string"
        },
        {
          "internalType": "string",
          "name": "substratePubKey",
          "type": "string"
        },
        {
          "internalType": "string",
          "name": "machineId",
          "type": "string"
        },
        {
          "internalType": "string",
          "name": "projectName",
          "type": "string"
        }
      ],
      "name": "addMachineRegisteredProject",
      "outputs": [
        {
          "internalType": "bool",
          "name": "",
          "type": "bool"
        }
      ],
      "stateMutability": "nonpayable",
      "type": "function"
    },
    {
      "inputs": [
        {
          "internalType": "uint256",
          "name": "lastClaimAt",
          "type": "uint256"
        },
        {
          "internalType": "uint256",
          "name": "slashAt",
          "type": "uint256"
        },
        {
          "internalType": "string",
          "name": "machineId",
          "type": "string"
        }
      ],
      "name": "getDlcMachineRentDuration",
      "outputs": [
        {
          "internalType": "uint256",
          "name": "rentDuration",
          "type": "uint256"
        }
      ],
      "stateMutability": "view",
      "type": "function"
    },
    {
      "inputs": [
        {
          "internalType": "string",
          "name": "machineId",
          "type": "string"
        }
      ],
      "name": "getDlcMachineSlashedAt",
      "outputs": [
        {
          "internalType": "uint256",
          "name": "",
          "type": "uint256"
        }
      ],
      "stateMutability": "view",
      "type": "function"
    },
    {
      "inputs": [
        {
          "internalType": "string",
          "name": "machineId",
          "type": "string"
        }
      ],
      "name": "getDlcMachineSlashedReportId",
      "outputs": [
        {
          "internalType": "uint256",
          "name": "",
          "type": "uint256"
        }
      ],
      "stateMutability": "view",
      "type": "function"
    },
    {
      "inputs": [
        {
          "internalType": "string",
          "name": "machineId",
          "type": "string"
        }
      ],
      "name": "getDlcMachineSlashedReporter",
      "outputs": [
        {
          "internalType": "address",
          "name": "",
          "type": "address"
        }
      ],
      "stateMutability": "view",
      "type": "function"
    },
    {
      "inputs": [
        {
          "internalType": "string",
          "name": "machineId",
          "type": "string"
        }
      ],
      "name": "getMachineCalcPoint",
      "outputs": [
        {
          "internalType": "uint256",
          "name": "",
          "type": "uint256"
        }
      ],
      "stateMutability": "view",
      "type": "function"
    },
    {
      "inputs": [
        {
          "internalType": "string",
          "name": "msgToSign",
          "type": "string"
        },
        {
          "internalType": "string",
          "name": "substrateSig",
          "type": "string"
        },
        {
          "internalType": "string",
          "name": "substratePubKey",
          "type": "string"
        },
        {
          "internalType": "uint256",
          "name": "lastClaimAt",
          "type": "uint256"
        },
        {
          "internalType": "uint256",
          "name": "slashAt",
          "type": "uint256"
        },
        {
          "internalType": "string",
          "name": "machineId",
          "type": "string"
        }
      ],
      "name": "getRentDuration",
      "outputs": [
        {
          "internalType": "uint256",
          "name": "rentDuration",
          "type": "uint256"
        }
      ],
      "stateMutability": "view",
      "type": "function"
    },
    {
      "inputs": [],
      "name": "initialize",
      "outputs": [],
      "stateMutability": "nonpayable",
      "type": "function"
    },
    {
      "inputs": [
        {
          "internalType": "string",
          "name": "msgToSign",
          "type": "string"
        },
        {
          "internalType": "string",
          "name": "substrateSig",
          "type": "string"
        },
        {
          "internalType": "string",
          "name": "substratePubKey",
          "type": "string"
        },
        {
          "internalType": "string",
          "name": "machineId",
          "type": "string"
        },
        {
          "internalType": "string",
          "name": "projectName",
          "type": "string"
        }
      ],
      "name": "isRegisteredMachineOwner",
      "outputs": [
        {
          "internalType": "bool",
          "name": "",
          "type": "bool"
        }
      ],
      "stateMutability": "view",
      "type": "function"
    },
    {
      "inputs": [
        {
          "internalType": "string",
          "name": "machineId",
          "type": "string"
        }
      ],
      "name": "isSlashed",
      "outputs": [
        {
          "internalType": "bool",
          "name": "slashed",
          "type": "bool"
        }
      ],
      "stateMutability": "view",
      "type": "function"
    },
    {
      "inputs": [
        {
          "internalType": "string",
          "name": "machineId",
          "type": "string"
        },
        {
          "internalType": "string",
          "name": "projectName",
          "type": "string"
        }
      ],
      "name": "machineIsRegistered",
      "outputs": [
        {
          "internalType": "bool",
          "name": "",
          "type": "bool"
        }
      ],
      "stateMutability": "view",
      "type": "function"
    },
    {
      "inputs": [],
      "name": "owner",
      "outputs": [
        {
          "internalType": "address",
          "name": "",
          "type": "address"
        }
      ],
      "stateMutability": "view",
      "type": "function"
    },
    {
      "inputs": [
        {
          "internalType": "string",
          "name": "msgToSign",
          "type": "string"
        },
        {
          "internalType": "string",
          "name": "substrateSig",
          "type": "string"
        },
        {
          "internalType": "string",
          "name": "substratePubKey",
          "type": "string"
        },
        {
          "internalType": "string",
          "name": "machineId",
          "type": "string"
        },
        {
          "internalType": "string",
          "name": "projectName",
          "type": "string"
        }
      ],
      "name": "removalMachineRegisteredProject",
      "outputs": [
        {
          "internalType": "bool",
          "name": "",
          "type": "bool"
        }
      ],
      "stateMutability": "nonpayable",
      "type": "function"
    },
    {
      "inputs": [],
      "name": "renounceOwnership",
      "outputs": [],
      "stateMutability": "nonpayable",
      "type": "function"
    },
    {
      "inputs": [
        {
          "internalType": "string",
          "name": "msgToSign",
          "type": "string"
        },
        {
          "internalType": "string",
          "name": "substrateSig",
          "type": "string"
        },
        {
          "internalType": "string",
          "name": "substratePubKey",
          "type": "string"
        },
        {
          "internalType": "string",
          "name": "machineId",
          "type": "string"
        }
      ],
      "name": "reportDlcEndStaking",
      "outputs": [
        {
          "internalType": "bool",
          "name": "",
          "type": "bool"
        }
      ],
      "stateMutability": "nonpayable",
      "type": "function"
    },
    {
      "inputs": [
        {
          "internalType": "string",
          "name": "msgToSign",
          "type": "string"
        },
        {
          "internalType": "string",
          "name": "substrateSig",
          "type": "string"
        },
        {
          "internalType": "string",
          "name": "substratePubKey",
          "type": "string"
        },
        {
          "internalType": "string",
          "name": "machineId",
          "type": "string"
        }
      ],
      "name": "reportDlcStaking",
      "outputs": [
        {
          "internalType": "bool",
          "name": "",
          "type": "bool"
        }
      ],
      "stateMutability": "nonpayable",
      "type": "function"
    },
    {
      "inputs": [
        {
          "internalType": "address",
          "name": "newOwner",
          "type": "address"
        }
      ],
      "name": "transferOwnership",
      "outputs": [],
      "stateMutability": "nonpayable",
      "type": "function"
    }
  ],
  "bytecode": "0x608060405234801561001057600080fd5b50611a74806100206000396000f3fe608060405234801561001057600080fd5b506004361061011b5760003560e01c80636ddc54c0116100b2578063b2a380ed11610081578063f2fde38b11610066578063f2fde38b14610269578063fc98ea941461027c578063fddca0df1461028f57600080fd5b8063b2a380ed14610243578063c43a67a31461025657600080fd5b80636ddc54c014610200578063715018a6146102135780638129fc1c1461021d5780638da5cb5b1461022557600080fd5b806346ddc345116100ee57806346ddc345146101b457806353f54e60146101c757806358b529ed146101da5780635d264f16146101ed57600080fd5b80632c7b466414610120578063367659451461015d5780633de7f876146101805780633fd2ec06146101a1575b600080fd5b61013361012e3660046114af565b6102a2565b60405173ffffffffffffffffffffffffffffffffffffffff90911681526020015b60405180910390f35b61017061016b3660046114e4565b6103d9565b6040519015158152602001610154565b61019361018e366004611591565b610512565b604051908152602001610154565b6101936101af366004611650565b61064f565b6101706101c23660046114af565b610783565b6101936101d53660046114af565b6108a9565b6101936101e83660046114af565b6109cf565b6101706101fb3660046116a0565b610a61565b61017061020e3660046116a0565b610b9d565b61021b610c72565b005b61021b610c86565b60335473ffffffffffffffffffffffffffffffffffffffff16610133565b6101936102513660046114af565b610e18565b610170610264366004611772565b610eaa565b61021b6102773660046117f8565b610fdb565b61017061028a3660046114e4565b61108f565b61017061029d3660046116a0565b611127565b600080600061080573ffffffffffffffffffffffffffffffffffffffff16846040516024016102d1919061186c565b60408051601f198184030181529181526020820180517bffffffffffffffffffffffffffffffffffffffffffffffffffffffff167f2c7b46640000000000000000000000000000000000000000000000000000000017905251610334919061187f565b600060405180830381855afa9150503d806000811461036f576040519150601f19603f3d011682016040523d82523d6000602084013e610374565b606091505b50915091508181906103bc576040517f08c379a00000000000000000000000000000000000000000000000000000000081526004016103b3919061186c565b60405180910390fd5b50808060200190518101906103d1919061189b565b949350505050565b600080600061080473ffffffffffffffffffffffffffffffffffffffff168787878760405160240161040e94939291906118b8565b60408051601f198184030181529181526020820180517bffffffffffffffffffffffffffffffffffffffffffffffffffffffff167f367659450000000000000000000000000000000000000000000000000000000017905251610471919061187f565b6000604051808303816000865af19150503d80600081146104ae576040519150601f19603f3d011682016040523d82523d6000602084013e6104b3565b606091505b50915091508181906104f2576040517f08c379a00000000000000000000000000000000000000000000000000000000081526004016103b3919061186c565b50808060200190518101906105079190611905565b979650505050505050565b600080600061080373ffffffffffffffffffffffffffffffffffffffff1689898989898960405160240161054b96959493929190611927565b60408051601f198184030181529181526020820180517bffffffffffffffffffffffffffffffffffffffffffffffffffffffff167f3de7f87600000000000000000000000000000000000000000000000000000000179052516105ae919061187f565b600060405180830381855afa9150503d80600081146105e9576040519150601f19603f3d011682016040523d82523d6000602084013e6105ee565b606091505b509150915081819061062d576040517f08c379a00000000000000000000000000000000000000000000000000000000081526004016103b3919061186c565b50808060200190518101906106429190611980565b9998505050505050505050565b600080600061080373ffffffffffffffffffffffffffffffffffffffff1686868660405160240161068293929190611999565b60408051601f198184030181529181526020820180517bffffffffffffffffffffffffffffffffffffffffffffffffffffffff167f3fd2ec0600000000000000000000000000000000000000000000000000000000179052516106e5919061187f565b600060405180830381855afa9150503d8060008114610720576040519150601f19603f3d011682016040523d82523d6000602084013e610725565b606091505b5091509150818190610764576040517f08c379a00000000000000000000000000000000000000000000000000000000081526004016103b3919061186c565b50808060200190518101906107799190611980565b9695505050505050565b600080600061080573ffffffffffffffffffffffffffffffffffffffff16846040516024016107b2919061186c565b60408051601f198184030181529181526020820180517bffffffffffffffffffffffffffffffffffffffffffffffffffffffff167f46ddc3450000000000000000000000000000000000000000000000000000000017905251610815919061187f565b600060405180830381855afa9150503d8060008114610850576040519150601f19603f3d011682016040523d82523d6000602084013e610855565b606091505b5091509150818190610894576040517f08c379a00000000000000000000000000000000000000000000000000000000081526004016103b3919061186c565b50808060200190518101906103d19190611905565b600080600061080373ffffffffffffffffffffffffffffffffffffffff16846040516024016108d8919061186c565b60408051601f198184030181529181526020820180517bffffffffffffffffffffffffffffffffffffffffffffffffffffffff167f53f54e60000000000000000000000000000000000000000000000000000000001790525161093b919061187f565b600060405180830381855afa9150503d8060008114610976576040519150601f19603f3d011682016040523d82523d6000602084013e61097b565b606091505b50915091508181906109ba576040517f08c379a00000000000000000000000000000000000000000000000000000000081526004016103b3919061186c565b50808060200190518101906103d19190611980565b600080600061080573ffffffffffffffffffffffffffffffffffffffff16846040516024016109fe919061186c565b60408051601f198184030181529181526020820180517bffffffffffffffffffffffffffffffffffffffffffffffffffffffff167f58b529ed000000000000000000000000000000000000000000000000000000001790525161093b919061187f565b600080600061080273ffffffffffffffffffffffffffffffffffffffff168888888888604051602401610a989594939291906119b8565b60408051601f198184030181529181526020820180517bffffffffffffffffffffffffffffffffffffffffffffffffffffffff167f5d264f160000000000000000000000000000000000000000000000000000000017905251610afb919061187f565b6000604051808303816000865af19150503d8060008114610b38576040519150601f19603f3d011682016040523d82523d6000602084013e610b3d565b606091505b5091509150818190610b7c576040517f08c379a00000000000000000000000000000000000000000000000000000000081526004016103b3919061186c565b5080806020019051810190610b919190611905565b98975050505050505050565b600080600061080273ffffffffffffffffffffffffffffffffffffffff168888888888604051602401610bd49594939291906119b8565b60408051601f198184030181529181526020820180517bffffffffffffffffffffffffffffffffffffffffffffffffffffffff167f6ddc54c00000000000000000000000000000000000000000000000000000000017905251610c37919061187f565b600060405180830381855afa9150503d8060008114610b38576040519150601f19603f3d011682016040523d82523d6000602084013e610b3d565b610c7a6111c1565b610c846000611242565b565b600054610100900460ff1615808015610ca65750600054600160ff909116105b80610cc05750303b158015610cc0575060005460ff166001145b610d4c576040517f08c379a000000000000000000000000000000000000000000000000000000000815260206004820152602e60248201527f496e697469616c697a61626c653a20636f6e747261637420697320616c72656160448201527f647920696e697469616c697a656400000000000000000000000000000000000060648201526084016103b3565b600080547fffffffffffffffffffffffffffffffffffffffffffffffffffffffffffffff001660011790558015610daa57600080547fffffffffffffffffffffffffffffffffffffffffffffffffffffffffffff00ff166101001790555b610db26112b9565b8015610e1557600080547fffffffffffffffffffffffffffffffffffffffffffffffffffffffffffff00ff169055604051600181527f7f26b83ff96e1f2b6a682f133852f6798a09c465da95921460cefb38474024989060200160405180910390a15b50565b600080600061080573ffffffffffffffffffffffffffffffffffffffff1684604051602401610e47919061186c565b60408051601f198184030181529181526020820180517bffffffffffffffffffffffffffffffffffffffffffffffffffffffff167fb2a380ed000000000000000000000000000000000000000000000000000000001790525161093b919061187f565b600080600061080273ffffffffffffffffffffffffffffffffffffffff168585604051602401610edb929190611a19565b60408051601f198184030181529181526020820180517bffffffffffffffffffffffffffffffffffffffffffffffffffffffff167fc43a67a30000000000000000000000000000000000000000000000000000000017905251610f3e919061187f565b600060405180830381855afa9150503d8060008114610f79576040519150601f19603f3d011682016040523d82523d6000602084013e610f7e565b606091505b5091509150818190610fbd576040517f08c379a00000000000000000000000000000000000000000000000000000000081526004016103b3919061186c565b5080806020019051810190610fd29190611905565b95945050505050565b610fe36111c1565b73ffffffffffffffffffffffffffffffffffffffff8116611086576040517f08c379a000000000000000000000000000000000000000000000000000000000815260206004820152602660248201527f4f776e61626c653a206e6577206f776e657220697320746865207a65726f206160448201527f646472657373000000000000000000000000000000000000000000000000000060648201526084016103b3565b610e1581611242565b600080600061080473ffffffffffffffffffffffffffffffffffffffff16878787876040516024016110c494939291906118b8565b60408051601f198184030181529181526020820180517bffffffffffffffffffffffffffffffffffffffffffffffffffffffff167ffc98ea940000000000000000000000000000000000000000000000000000000017905251610471919061187f565b600080600061080273ffffffffffffffffffffffffffffffffffffffff16888888888860405160240161115e9594939291906119b8565b60408051601f198184030181529181526020820180517bffffffffffffffffffffffffffffffffffffffffffffffffffffffff167fad62e4cf0000000000000000000000000000000000000000000000000000000017905251610afb919061187f565b60335473ffffffffffffffffffffffffffffffffffffffff163314610c84576040517f08c379a000000000000000000000000000000000000000000000000000000000815260206004820181905260248201527f4f776e61626c653a2063616c6c6572206973206e6f7420746865206f776e657260448201526064016103b3565b6033805473ffffffffffffffffffffffffffffffffffffffff8381167fffffffffffffffffffffffff0000000000000000000000000000000000000000831681179093556040519116919082907f8be0079c531659141344cd1fd0a4f28419497f9722a3daafe3b4186f6b6457e090600090a35050565b600054610100900460ff16611350576040517f08c379a000000000000000000000000000000000000000000000000000000000815260206004820152602b60248201527f496e697469616c697a61626c653a20636f6e7472616374206973206e6f74206960448201527f6e697469616c697a696e6700000000000000000000000000000000000000000060648201526084016103b3565b610c84600054610100900460ff166113ea576040517f08c379a000000000000000000000000000000000000000000000000000000000815260206004820152602b60248201527f496e697469616c697a61626c653a20636f6e7472616374206973206e6f74206960448201527f6e697469616c697a696e6700000000000000000000000000000000000000000060648201526084016103b3565b610c8433611242565b7f4e487b7100000000000000000000000000000000000000000000000000000000600052604160045260246000fd5b600082601f83011261143357600080fd5b813567ffffffffffffffff8082111561144e5761144e6113f3565b604051601f8301601f19908116603f01168101908282118183101715611476576114766113f3565b8160405283815286602085880101111561148f57600080fd5b836020870160208301376000602085830101528094505050505092915050565b6000602082840312156114c157600080fd5b813567ffffffffffffffff8111156114d857600080fd5b6103d184828501611422565b600080600080608085870312156114fa57600080fd5b843567ffffffffffffffff8082111561151257600080fd5b61151e88838901611422565b9550602087013591508082111561153457600080fd5b61154088838901611422565b9450604087013591508082111561155657600080fd5b61156288838901611422565b9350606087013591508082111561157857600080fd5b5061158587828801611422565b91505092959194509250565b60008060008060008060c087890312156115aa57600080fd5b863567ffffffffffffffff808211156115c257600080fd5b6115ce8a838b01611422565b975060208901359150808211156115e457600080fd5b6115f08a838b01611422565b9650604089013591508082111561160657600080fd5b6116128a838b01611422565b9550606089013594506080890135935060a089013591508082111561163657600080fd5b5061164389828a01611422565b9150509295509295509295565b60008060006060848603121561166557600080fd5b8335925060208401359150604084013567ffffffffffffffff81111561168a57600080fd5b61169686828701611422565b9150509250925092565b600080600080600060a086880312156116b857600080fd5b853567ffffffffffffffff808211156116d057600080fd5b6116dc89838a01611422565b965060208801359150808211156116f257600080fd5b6116fe89838a01611422565b9550604088013591508082111561171457600080fd5b61172089838a01611422565b9450606088013591508082111561173657600080fd5b61174289838a01611422565b9350608088013591508082111561175857600080fd5b5061176588828901611422565b9150509295509295909350565b6000806040838503121561178557600080fd5b823567ffffffffffffffff8082111561179d57600080fd5b6117a986838701611422565b935060208501359150808211156117bf57600080fd5b506117cc85828601611422565b9150509250929050565b73ffffffffffffffffffffffffffffffffffffffff81168114610e1557600080fd5b60006020828403121561180a57600080fd5b8135611815816117d6565b9392505050565b60005b8381101561183757818101518382015260200161181f565b50506000910152565b6000815180845261185881602086016020860161181c565b601f01601f19169290920160200192915050565b6020815260006118156020830184611840565b6000825161189181846020870161181c565b9190910192915050565b6000602082840312156118ad57600080fd5b8151611815816117d6565b6080815260006118cb6080830187611840565b82810360208401526118dd8187611840565b905082810360408401526118f18186611840565b905082810360608401526105078185611840565b60006020828403121561191757600080fd5b8151801515811461181557600080fd5b60c08152600061193a60c0830189611840565b828103602084015261194c8189611840565b905082810360408401526119608188611840565b905085606084015284608084015282810360a08401526106428185611840565b60006020828403121561199257600080fd5b5051919050565b838152826020820152606060408201526000610fd26060830184611840565b60a0815260006119cb60a0830188611840565b82810360208401526119dd8188611840565b905082810360408401526119f18187611840565b90508281036060840152611a058186611840565b90508281036080840152610b918185611840565b604081526000611a2c6040830185611840565b8281036020840152610fd2818561184056fea26469706673582212204d4b191ea729453e66e530f64022704ff43bda62acf34d26c83b21dca3f0156964736f6c63430008120033",
  "linkReferences": {},
  "deployedLinkReferences": {}
}